{
  "_format": "hh-sol-artifact-1",
  "contractName": "Atm",
  "sourceName": "contracts/Assessment.sol",
  "abi": [
    {
      "inputs": [
        {
          "internalType": "uint256",
          "name": "initBalance",
          "type": "uint256"
        }
      ],
      "stateMutability": "payable",
      "type": "constructor"
    },
    {
      "inputs": [
        {
          "internalType": "uint256",
          "name": "balance",
          "type": "uint256"
        },
        {
          "internalType": "uint256",
          "name": "withdrawAmount",
          "type": "uint256"
        }
      ],
      "name": "InsuffcientBalance",
      "type": "error"
    },
    {
      "anonymous": false,
      "inputs": [
        {
          "indexed": false,
          "internalType": "uint256",
          "name": "amount",
          "type": "uint256"
        }
      ],
      "name": "Deposit",
      "type": "event"
    },
    {
      "anonymous": false,
      "inputs": [
        {
          "indexed": false,
          "internalType": "uint256",
          "name": "amount",
          "type": "uint256"
        }
      ],
      "name": "Withdraw",
      "type": "event"
    },
    {
      "inputs": [],
      "name": "balance",
      "outputs": [
        {
          "internalType": "uint256",
          "name": "",
          "type": "uint256"
        }
      ],
      "stateMutability": "view",
      "type": "function"
    },
    {
      "inputs": [
        {
          "internalType": "uint256",
          "name": "_amount",
          "type": "uint256"
        }
      ],
      "name": "deposit",
      "outputs": [],
      "stateMutability": "payable",
      "type": "function"
    },
    {
      "inputs": [],
      "name": "getBalance",
      "outputs": [
        {
          "internalType": "uint256",
          "name": "",
          "type": "uint256"
        }
      ],
      "stateMutability": "view",
      "type": "function"
    },
    {
      "inputs": [
        {
          "internalType": "uint256",
          "name": "_amount",
          "type": "uint256"
        }
      ],
      "name": "withdraw",
      "outputs": [],
      "stateMutability": "payable",
      "type": "function"
    }
  ],
  "bytecode": "0x6080604052604051610656380380610656833981810160405281019061002591906100ad565b336000806101000a81548173ffffffffffffffffffffffffffffffffffffffff021916908373ffffffffffffffffffffffffffffffffffffffff16021790555080600181905550506100da565b600080fd5b6000819050919050565b61008a81610077565b811461009557600080fd5b50565b6000815190506100a781610081565b92915050565b6000602082840312156100c3576100c2610072565b5b60006100d184828501610098565b91505092915050565b61056d806100e96000396000f3fe60806040526004361061003f5760003560e01c806312065fe0146100445780632e1a7d4d1461006f578063b69ef8a81461008b578063b6b55f25146100b6575b600080fd5b34801561005057600080fd5b506100596100d2565b6040516100669190610352565b60405180910390f35b6100896004803603810190610084919061039e565b6100dc565b005b34801561009757600080fd5b506100a061022d565b6040516100ad9190610352565b60405180910390f35b6100d060048036038101906100cb919061039e565b610233565b005b6000600154905090565b60008054906101000a900473ffffffffffffffffffffffffffffffffffffffff1673ffffffffffffffffffffffffffffffffffffffff163373ffffffffffffffffffffffffffffffffffffffff161461016a576040517f08c379a000000000000000000000000000000000000000000000000000000000815260040161016190610428565b60405180910390fd5b600060015490506001548211156101bc57600154826040517f5ab9c6cc0000000000000000000000000000000000000000000000000000000081526004016101b3929190610448565b60405180910390fd5b81600160008282546101ce91906104a0565b9250508190555081816101e191906104a0565b600154146101f2576101f16104d4565b5b7f5b6b431d4476a211bb7d41c20d1aab9ae2321deee0d20be3d9fc9b1093fa6e3d826040516102219190610352565b60405180910390a15050565b60015481565b6000600154905060008054906101000a900473ffffffffffffffffffffffffffffffffffffffff1673ffffffffffffffffffffffffffffffffffffffff163373ffffffffffffffffffffffffffffffffffffffff16146102c8576040517f08c379a00000000000000000000000000000000000000000000000000000000081526004016102bf90610428565b60405180910390fd5b81600160008282546102da9190610503565b9250508190555081816102ed9190610503565b600154146102fe576102fd6104d4565b5b7f4d6ce1e535dbade1c23defba91e23b8f791ce5edc0cc320257a2b364e4e384268260405161032d9190610352565b60405180910390a15050565b6000819050919050565b61034c81610339565b82525050565b60006020820190506103676000830184610343565b92915050565b600080fd5b61037b81610339565b811461038657600080fd5b50565b60008135905061039881610372565b92915050565b6000602082840312156103b4576103b361036d565b5b60006103c284828501610389565b91505092915050565b600082825260208201905092915050565b7f4e6f7420417574686f72697a6564000000000000000000000000000000000000600082015250565b6000610412600e836103cb565b915061041d826103dc565b602082019050919050565b6000602082019050818103600083015261044181610405565b9050919050565b600060408201905061045d6000830185610343565b61046a6020830184610343565b9392505050565b7f4e487b7100000000000000000000000000000000000000000000000000000000600052601160045260246000fd5b60006104ab82610339565b91506104b683610339565b92508282039050818111156104ce576104cd610471565b5b92915050565b7f4e487b7100000000000000000000000000000000000000000000000000000000600052600160045260246000fd5b600061050e82610339565b915061051983610339565b925082820190508082111561053157610530610471565b5b9291505056fea2646970667358221220e05f3ae1a85cb2d4ea620f095dc4874cf97547a6c03799dabebf708041aa2e7c64736f6c63430008110033",
  "linkReferences": {},
  "deployedLinkReferences": {}
}